:04000000FEEF3FF0E0
:1006000000496E696369616E646F2E2E2E00544539
:100610004D3A2000252E326600696E66006E616ECE
:1006200000000001A16B56C0A4F057C0A5F058C04F
:10063000A6F059C0A7F0A7BF22EF03F020EF03F008
:1006400036EF03F0010EA16FA4C001F0A5C002F0C7
:10065000A6C003F0A7C004F01AEC16F001C0A4F085
:1006600002C0A5F003C0A6F004C0A7F0000E000170
:10067000A36F000EA26FD1C091F0D2C092F0A15131
:10068000D8B445EF03F047EF03F05BEF03F0A1515F
:10069000D8A44DEF03F04FEF03F055EF03F0000E39
:1006A000876F2B0E866F59EF03F0000E876F2D0EAC
:1006B000866F86C0A1F0A4C001F0A5C002F0A6C05C
:1006C00003F0A7C004F087EC12F001040210D8A4D4
:1006D0006CEF03F06EEF03F09DEF03F00001A1510A
:1006E000D8B475EF03F077EF03F080EF03F0A1C00B
:1006F00000F19107D8A09207000EA36F010EA26F20
:10070000000EA225016E010EA321026E190E036ECA
:10071000E1EC15F00001FD0E9127FF0E922355C06C
:100720000FF0000E106E010E116E91C012F092C00B
:1007300013F052EC14F002EF08F0A4C001F0A5C0D1
:1007400002F0A6C003F0A7C004F087EC12F001503D
:100750000210D8A4AEEF03F0B0EF03F0CEEF03F039
:100760000001A151D8B4B7EF03F0B9EF03F0C2EF25
:1007700003F0A1C000F19107D8A09207000EA36F6B
:10078000010EA26F000EA225016E010EA321026EC2
:100790001D0E036EE1EC15F08AEF03F0000E000170
:1007A000A86F000EA96F800EAA6F3F0EAB6F000EF0
:1007B000906F000E8F6FA4C001F0A5C002F0A6C01C
:1007C00003F0A7C004F0000E056E000E066E000ECA
:1007D000076E000E086E5BEC13F0D8B0F2EF03F07A
:1007E000F4EF03F0D3EF04F001EF04F093C0A8F0AE
:1007F00094C0A9F095C0AAF096C0ABF000018F4B51
:10080000902BA8C00FF0A9C010F0AAC011F0ABC087
:1008100012F0000E136E000E146E200E156E410EB7
:10082000166E5EEC0AF00FC093F010C094F011C089
:1008300095F012C096F000019351A45D016E9451A1
:10084000A559026E9551A659036E9651A759046E8B
:10085000B4EC14F004BE38EF04F00450031002109E
:1008600009E1020E015CD8A038EF04F03AEF04F081
:10087000F6EF03F093C028F094C029F095C02AF059
:1008800096C02BF0A4C02CF0A5C02DF0A6C02EF071
:10089000A7C02FF086EC11F0D8A051EF04F053EF71
:1008A00004F0F6EF03F00001A851A45D016EA95118
:1008B000A559026EAA51A659036EAB51A759046EF1
:1008C000B4EC14F004BE72EF04F0045003100210F4
:1008D00007E1020E015CD8B070EF04F072EF04F093
:1008E000BAEF04F0A8C0A4F0A9C0A5F0AAC0A6F071
:1008F000ABC0A7F0D3EF04F0A8C028F0A9C029F03E
:10090000AAC02AF0ABC02BF0000E2C6E000E2D6E8C
:10091000200E2E6E410E2F6E71EC0CF028C0A8F048
:1009200029C0A9F02AC0AAF02BC0ABF000018F07A4
:10093000D8A09007A851A45D016EA951A559026ED7
:10094000AA51A659036EAB51A759046EB4EC14F02A
:1009500004BEB8EF04F004500310021007E1020EC9
:10096000015CD8B0B6EF04F0B8EF04F0BAEF04F0D1
:1009700072EF04F0A4C028F0A5C029F0A6C02AF0A8
:10098000A7C02BF0A8C02CF0A9C02DF0AAC02EF053
:10099000ABC02FF086EC11F0D8A0D1EF04F0D3EF6C
:1009A00004F07CEF04F05AC089F089C08AF000019D
:1009B000D4BFDDEF04F0DFEF04F0E5EF04F0D3C0C7
:1009C00082F0D4C083F0E9EF04F0000E836F060ECE
:1009D000826F82C08DF083C08EF08D4B8E2B660EA1
:1009E0008A19D8A4F6EF04F0F8EF04F018EF05F038
:1009F00090BFFFEF04F0FDEF04F00BEF05F0000EE9
:100A0000A86F000EA96F800EAA6F3F0EAB6F000E8D
:100A1000906F000E8F6F670E8919D8B412EF05F032
:100A200014EF05F018EF05F08F518D2790518E23AC
:100A3000000E986F000E976FA4C099F0A5C09AF0B1
:100A4000A6C09BF0A7C09CF0A8C093F0A9C094F0EA
:100A5000AAC095F0ABC096F0A9EF05F099C028F0B8
:100A60009AC029F09BC02AF09CC02BF0A8C02CF0A3
:100A7000A9C02DF0AAC02EF0ABC02FF071EC0CF085
:100A800028C041F029C042F02AC043F02BC044F0F6
:100A900039EC0EF041C09DF042C09EF043C09FF083
:100AA00044C0A0F09DC001F09EC002F09FC003F0C2
:100AB000A0C004F003EC11F001C08BF002C08CF078
:100AC00099C028F09AC029F09BC02AF09CC02BF056
:100AD0009DC013F09EC014F09FC015F0A0C016F08A
:100AE000A8C00FF0A9C010F0AAC011F0ABC012F05E
:100AF0005EEC0AF00FC02CF010C02DF011C02EF0EB
:100B000012C02FF05CEC15F028C099F029C09AF0C3
:100B10002AC09BF02BC09CF0A8C028F0A9C029F0E7
:100B2000AAC02AF0ABC02BF0000E2C6E000E2D6E6A
:100B3000200E2E6E410E2F6E71EC0CF028C0A8F026
:100B400029C0A9F02AC0AAF02BC0ABF00001974B36
:100B5000982B8D51975D9851800A5B6E8E51800A5B
:100B60005B58D8A0B6EF05F0B8EF05F02EEF05F012
:100B7000A8C00FF0A9C010F0AAC011F0ABC012F0CD
:100B8000000E136E000E146EA00E156E400E166E43
:100B90005EEC0AF00FC09DF010C09EF011C09FF0F7
:100BA00012C0A0F099C028F09AC029F09BC02AF08A
:100BB0009CC02BF09DC02CF09EC02DF09FC02EF04D
:100BC000A0C02FF086EC11F0D8B0E9EF05F0EBEF04
:100BD00005F0F6EF05F0000E00019D6F000E9E6F10
:100BE000000E9F6F000EA06F1FEF06F099C001F07E
:100BF0009AC002F09BC003F09CC004F09DC005F0B9
:100C00009EC006F09FC007F0A0C008F05BEC13F098
:100C1000D8A00DEF06F00FEF06F01FEF06F0000171
:100C20008BB115EF06F017EF06F01FEF06F0000E80
:100C30009D6F000E9E6F000E9F6F000EA06FA4C0F0
:100C400001F0A5C002F0A6C003F0A7C004F09DC04B
:100C500005F09EC006F09FC007F0A0C008F003ECAE
:100C600008F001C099F002C09AF003C09BF004C0E4
:100C70009CF099C028F09AC029F09BC02AF09CC033
:100C80002BF0000E136E000E146E200E156E410E2A
:100C9000166E93C00FF094C010F095C011F096C07E
:100CA00012F05EEC0AF00FC02CF010C02DF011C055
:100CB0002EF012C02FF086EC11F0D8A062EF06F0F3
:100CC00064EF06F08DEF06F000018F4B902B93C080
:100CD0000FF094C010F095C011F096C012F0000E05
:100CE000136E000E146E200E156E410E166E5EEC25
:100CF0000AF00FC093F010C094F011C095F012C02C
:100D000096F0660E00018A19D8A489EF06F08BEFE1
:100D100006F08DEF06F08D4B8E2B93C0A8F094C09B
:100D2000A9F095C0AAF096C0ABF08FC080F090C03B
:100D300081F00001886B000E856F000E846F000E3D
:100D4000986F000E976F8AEF07F099C028F09AC04D
:100D500029F09BC02AF09CC02BF0A8C02CF0A9C0A1
:100D60002DF0AAC02EF0ABC02FF071EC0CF028C013
:100D700041F029C042F02AC043F02BC044F039ECC6
:100D80000EF041C09DF042C09EF043C09FF044C0B1
:100D9000A0F09DC001F09EC002F09FC003F0A0C073
:100DA00004F003EC11F002BEE1EF06F0025007E19F
:100DB0000A0E015CD8B0DFEF06F0E1EF06F0F1EFCC
:100DC00006F09DC001F09EC002F09FC003F0A0C0DD
:100DD00004F003EC11F001C08BF002C08CF0F6EFD0
:100DE00006F0000E00018C6F090E8B6F0001885118
:100DF000D8A4FDEF06F0FFEF06F027EF07F081BF64
:100E000006EF07F004EF07F027EF07F0000EA2252A
:100E1000D96E010EA321DA6E2E0EDF6EA24BA32B2C
:100E20009107D8A09207010E886F27EF07F0000EF8
:100E3000A225D96E010EA321DA6E300EDF6EA24B11
:100E4000A32B9107D8A092078407D8A085078451C7
:100E50008511D8A42EEF07F030EF07F017EF07F059
:100E6000000EA225D96E010EA321DA6E8B51300F30
:100E7000DF6EA24BA32B9107D8A0920799C028F050
:100E80009AC029F09BC02AF09CC02BF09DC013F0A3
:100E90009EC014F09FC015F0A0C016F0A8C00FF0BF
:100EA000A9C010F0AAC011F0ABC012F05EEC0AF0BD
:100EB0000FC02CF010C02DF011C02EF012C02FF07A
:100EC0005CEC15F028C099F029C09AF02AC09BF07C
:100ED0002BC09CF0A8C028F0A9C029F0AAC02AF015
:100EE000ABC02BF0000E2C6E000E2D6E200E2E6E61
:100EF000410E2F6E71EC0CF028C0A8F029C0A9F0AB
:100F00002AC0AAF02BC0ABF000018007D8A081074F
:100F1000974B982B8D51975D9851800A5B6E8E513F
:100F2000800A5B58D8B097EF07F099EF07F0A7EF6A
:100F300007F0A3BFA5EF07F0A35109E14B0EA25D97
:100F4000D8A0A5EF07F0A7EF07F0A5EF06F0000E79
:100F5000986F4F0E976F000E9725D96E010E98214E
:100F6000DA6EDF6A000E5B6E010E5C6EA2515B5E94
:100F7000A3515C5A97515B24016E98515C20026E1C
:100F8000000E036E010E046EA2C005F0A3C006F0B1
:100F900034EC15F00001A251975DA26FA35198594E
:100FA000A36FA151D8A4D7EF07F0DAEF07F0010E35
:100FB000DBEF07F0000E976F986BA151D8B4E3EF09
:100FC00007F0E5EF07F0F0EF07F0A207D8A0A307BE
:100FD000000EA225D96E010EA321DA6EA1C0DFFF9B
:100FE0009751915F9851925B55C00FF0000EA2256A
:100FF000106E010EA321116E91C012F092C013F079
:1010000052EC14F012000450800B0D6E04500424B6
:101010000F6E03AE0EEF08F010EF08F011EF08F0BE
:101020000F800F50D8B417EF08F019EF08F02DEF2C
:1010300008F00F28D8A41FEF08F021EF08F029EFDF
:1010400008F0000E016E000E026E000E036E000E20
:10105000046E038E046A35EF08F0000E016E000E78
:10106000026E000E036E000E046E0850800B0E6EB2
:101070000D500E18D8B43FEF08F041EF08F042EFE2
:1010800008F00D8C085008240E6E07AE4AEF08F0E9
:101090004CEF08F04DEF08F00E800E50D8B453EF2F
:1010A00008F055EF08F069EF08F00E28D8A45BEFC0
:1010B00008F05DEF08F065EF08F0000E056E000E19
:1010C000066E000E076E000E086E078E086A71EF3E
:1010D00008F0000E056E000E066E000E076E000E84
:1010E000086E0F500E5CD8B078EF08F07AEF08F079
:1010F000A1EF08F00DAC7FEF08F081EF08F083EF6F
:1011000008F0800E0D1A0FC010F00EC00FF010C0C6
:101110000EF001C010F005C001F010C005F002C0D3
:1011200010F006C002F010C006F003C010F007C0B7
:1011300003F010C007F004C010F008C004F010C0A5
:1011400008F0106A0F500EC009F00A6A095E000E1E
:101150000A5A0ABEB5EF08F00A5009E11A0E095CF6
:10116000D8A0B5EF08F0B7EF08F0EEEF08F00150A7
:10117000021003100410D8A4C0EF08F0C3EF08F069
:10118000010EC4EF08F0000E106E000E016E000E8E
:10119000026E000E036E000E046E0EC00FF0F7EF2D
:1011A00008F010A0D6EF08F0D8EF08F0DEEF08F056
:1011B000D89010300109106EE0EF08F0D89010328E
:1011C00001A0E5EF08F0E7EF08F0E8EF08F0108E77
:1011D000043404320332023201320F2A0E500F5C03
:1011E000D8A0F5EF08F0F7EF08F0D1EF08F00DBC4C
:1011F000FCEF08F0FEEF08F03EEF09F00F50D8A426
:1012000004EF09F006EF09F010EF09F0000E016E8F
:10121000000E026E000E036E000E046E5DEF0AF00B
:1012200005500126065002220750032208500422CE
:1012300004A01DEF09F01FEF09F0CBEF09F010A09B
:1012400024EF09F026EF09F02CEF09F0D8901030C8
:101250000109106E2EEF09F0D890103201A033EF83
:1012600009F035EF09F036EF09F0108E043404323E
:101270000332023201320F2ACBEF09F00550015C34
:1012800006500258075003580450800A096E08504F
:10129000800A0958D8B04FEF09F051EF09F07CEF00
:1012A00009F00150055C096E025006580A6E0350A1
:1012B00007580B6E045008580C6EFF0E0924016E7F
:1012C000FF0E0A20026EFF0E0B20036EFF0E0C2095
:1012D000046E800E0D1A106C1050D8A472EF09F035
:1012E00074EF09F084EF09F0010E0126000E0222CE
:1012F0000322042284EF09F00550015E0650025AD1
:101300000750035A0850045A0150021003100410E9
:10131000D8A48DEF09F08FEF09F0C4EF09F0105059
:10132000D8A495EF09F097EF09F0C4EF09F0000E8B
:10133000016E000E026E000E036E000E046E5DEF75
:101340000AF0D890013602360336043610AEABEF01
:1013500009F0ADEF09F0AEEF09F0018010A0B3EF96
:1013600009F0B5EF09F0B9EF09F0D8801036BBEFFE
:1013700009F0D89010360F50D8B4C1EF09F0C3EF80
:1013800009F0C4EF09F00F0603AEC9EF09F0CBEF87
:1013900009F0A1EF09F00E6A10AED1EF09F0D3EF1A
:1013A00009F0EBEF09F010C009F07F0E0916D8B470
:1013B000DCEF09F0DEEF09F0E2EF09F0010E0E6E4E
:1013C000EBEF09F001A0E7EF09F0E9EF09F0EBEF2F
:1013D00009F0DEEF09F00E50D8B4F1EF09F0F3EFA9
:1013E00009F01EEF0AF0010E0126000E0222032270
:1013F000042204A0FEEF09F000EF0AF01EEF0AF04D
:1014000001C009F002C00AF003C00BF004C00CF0E8
:101410000C340C320B320A32093209C001F00AC016
:1014200002F00BC003F00CC004F00F28D8B41BEF7F
:101430000AF01DEF0AF01EEF0AF00F2A0F28D8B4A9
:1014400024EF0AF026EF0AF02EEF0AF00F50D8A48E
:101450002CEF0AF02EEF0AF03FEF0AF0000E016EBB
:10146000000E026E000E036E000E046E0F50D8A424
:101470003CEF0AF03EEF0AF03FEF0AF00D6A0FA0D2
:1014800044EF0AF046EF0AF049EF0AF0038E4AEF04
:101490000AF0039ED8900F30046E0DAE52EF0AF0A2
:1014A00054EF0AF055EF0AF0048E01C001F002C0BB
:1014B00002F003C003F004C004F012001250800BCD
:1014C0001B6E12501224216E11AE69EF0AF06BEF01
:1014D0000AF06CEF0AF021802150D8B472EF0AF0C4
:1014E00074EF0AF087EF0AF02128D8A47AEF0AF007
:1014F0007CEF0AF084EF0AF0000E0F6E000E106E03
:10150000000E116E000E126E118E8FEF0AF0000E9B
:101510000F6E000E106E000E116E000E126E165041
:10152000800B1B1A16501624206E15AE9AEF0AF087
:101530009CEF0AF09DEF0AF020802050D8B4A3EF72
:101540000AF0A5EF0AF0B8EF0AF02028D8A4ABEF14
:101550000AF0ADEF0AF0B5EF0AF0000E136E000EC0
:10156000146E000E156E000E166E158EC0EF0AF08A
:10157000000E136E000E146E000E156E000E166E29
:101580002050D8B4C6EF0AF0C8EF0AF0D0EF0AF046
:101590002150D8A4CEEF0AF0D0EF0AF0DAEF0AF02B
:1015A000000E0F6E000E106E000E116E000E126E09
:1015B00070EF0CF015500F02F3CF26F0F4CF27F0A8
:1015C00026501C6E1D6A1E6A1F6A2750226E236AEF
:1015D000246A256A14501002F3CF26F0F4CF27F0C6
:1015E00026501C26000E1D221E221F2227502226B6
:1015F000000E23222422252213501102F3CF26F0BD
:10160000F4CF27F026501C26000E1D221E221F227A
:1016100027502226000E2322242225221EC01FF03E
:101620001DC01EF01CC01DF01C6A13501002F3CF29
:1016300026F0F4CF27F026501C2627501D22000E3E
:101640001E22000E1F2214500F02F3CF26F0F4CFFB
:1016500027F026501C2627501D22000E1E22000EA9
:101660001F221EC01FF01DC01EF01CC01DF01C6AF2
:1016700013500F02F3CF26F0F4CF27F026501C268C
:1016800027501D22000E1E22000E1F221550100290
:10169000F3CF26F0F4CF27F026502226275023221E
:1016A000000E2422000E252214501102F3CF26F042
:1016B000F4CF27F02650222627502322000E242282
:1016C000000E252215501102F3CF26F0F4CF27F09B
:1016D0002650176E2750186E196A1A6A19C01AF028
:1016E00018C019F017C018F0176A175022261850A2
:1016F0002322195024221A5025221CC017F01DC085
:1017000018F01EC019F01FC01AF0190E8DEF0BF063
:10171000D8901A32193218321732E82E88EF0BF0AF
:101720001750222618502322195024221A502522FD
:101730001EC01FF01DC01EF01CC01DF01C6A2050F2
:1017400021C017F0186A1726000E1822820E1724DF
:10175000266EFF0E1820276EC3EF0BF0D8902236AE
:101760002336243625361FAEB8EF0BF0BAEF0BF058
:10177000BBEF0BF02280D8901C361D361E361F366C
:101780002606D8A0270624AEC8EF0BF0CAEF0BF050
:10179000AEEF0BF0206A1FAED0EF0BF0D2EF0BF0E4
:1017A000F6EF0BF0FF0E1C14176EFF0E1D14186ED3
:1017B000FF0E1E14196E7F0E1F141A6E175018108C
:1017C00019101A10D8B4E7EF0BF0E9EF0BF0EDEFBA
:1017D0000BF0010E206EF6EF0BF022A0F2EF0BF0F3
:1017E000F4EF0BF0F6EF0BF0E9EF0BF02050D8B46C
:1017F000FCEF0BF0FEEF0BF022EF0CF0010E2226B7
:10180000000E23222422252225A009EF0CF00BEF45
:101810000CF022EF0CF022C017F023C018F024C007
:1018200019F025C01AF01A341A3219321832173248
:1018300017C022F018C023F019C024F01AC025F0F8
:10184000264A272A27BE2DEF0CF0275008E126282C
:10185000D8A02DEF0CF02FEF0CF039EF0CF0000EAC
:10186000226E000E236E800E246E7F0E256E66EFB4
:101870000CF027BE46EF0CF0275006E12604D8B046
:1018800044EF0CF046EF0CF051EF0CF0000E226E1E
:10189000000E236E000E246E000E256E1B6A66EF8E
:1018A0000CF026C021F0FF0E2216FF0E23167F0E2D
:1018B0002416000E251621A060EF0CF062EF0CF04C
:1018C00063EF0CF0248ED8902130256E1B5025122A
:1018D00022C00FF023C010F024C011F025C012F078
:1018E00012002B50800B386E2B502B243F6E2AAEEB
:1018F0007CEF0CF07EEF0CF07FEF0CF03F803F5060
:10190000D8B485EF0CF087EF0CF09BEF0CF03F287C
:10191000D8A48DEF0CF08FEF0CF097EF0CF0000EC9
:10192000286E000E296E000E2A6E000E2B6E2A8E77
:101930002B6AA3EF0CF0000E286E000E296E000E2D
:101940002A6E000E2B6E2F50800B381A2F502F242A
:10195000406E2EAEAEEF0CF0B0EF0CF0B1EF0CF02D
:1019600040804050D8B4B7EF0CF0B9EF0CF0CDEF99
:101970000CF04028D8A4BFEF0CF0C1EF0CF0C9EF79
:101980000CF0000E2C6E000E2D6E000E2E6E000E52
:101990002F6E2E8E2F6AD5EF0CF0000E2C6E000EDF
:1019A0002D6E000E2E6E000E2F6E2C502D102E1050
:1019B0002F10D8A4DEEF0CF0E0EF0CF0F8EF0CF0F5
:1019C000000E286E000E296E000E2A6E000E2B6E81
:1019D000800E2A127F0E2B1238502B1228C028F0AE
:1019E00029C029F02AC02AF02BC02BF038EF0EF0C6
:1019F0003F50D8A4FEEF0CF000EF0DF00AEF0DF011
:101A0000000E286E000E296E000E2A6E000E2B6E40
:101A100038EF0EF040503FC030F0316A305E000EBB
:101A2000315A7F0E3024396E000E31203A6E28C0B4
:101A300034F029C035F02AC036F02BC037F0000E44
:101A4000286E000E296E000E2A6E000E2B6E000E00
:101A50003B6E000E3C6E000E3D6E000E3E6E406A08
:101A60006AEF0DF04050D8B438EF0DF03AEF0DF0BA
:101A700051EF0DF0D8903436353636363736D890AB
:101A8000283629362A362B363EAE49EF0DF04BEF7D
:101A90000DF04CEF0DF02880D8903B363C363D36AB
:101AA0003E362C50345C2D5035582E5036582F5021
:101AB0003758D8A05EEF0DF060EF0DF069EF0DF034
:101AC0003E8C2C50345E2D50355A2E50365A2F50A5
:101AD000375A402A190E406470EF0DF072EF0DF086
:101AE00032EF0DF03450351036103710D8B47BEF8C
:101AF0000DF07DEF0DF095EF0DF03B8095EF0DF0C3
:101B0000D890283629362A362B363EAE8AEF0DF08D
:101B10008CEF0DF08DEF0DF02880D8903B363C36E1
:101B20003D363E363906D8A03A062AAE9AEF0DF079
:101B30009CEF0DF080EF0DF0406A3EAEA2EF0DF08D
:101B4000A4EF0DF0C8EF0DF0FF0E3B14306EFF0E4A
:101B50003C14316EFF0E3D14326E7F0E3E14336E18
:101B60003050311032103310D8B4B9EF0DF0BBEF54
:101B70000DF0BFEF0DF0010E406EC8EF0DF028A084
:101B8000C4EF0DF0C6EF0DF0C8EF0DF0BBEF0DF098
:101B90004050D8B4CEEF0DF0D0EF0DF0F4EF0DF0D3
:101BA000010E2826000E29222A222B222BA0DBEF51
:101BB0000DF0DDEF0DF0F4EF0DF028C030F029C08E
:101BC00031F02AC032F02BC033F0333433323232AA
:101BD0003132303230C028F031C029F032C02AF022
:101BE00033C02BF0394A3A2A3ABEFFEF0DF03A5093
:101BF00008E13928D8A0FFEF0DF001EF0EF00CEF4F
:101C00000EF0000E3A6E3968000E286E000E296E36
:101C1000000E2A6E000E2B6E3ABE19EF0EF03A50EF
:101C200006E13904D8B017EF0EF019EF0EF026EFE9
:101C30000EF0000E3A6E000E396E000E286E000E89
:101C4000296E000E2A6E000E2B6E386A39C03FF0E6
:101C50003FA02DEF0EF02FEF0EF032EF0EF02A8E98
:101C600033EF0EF02A9ED8903F302B6EECEF0CF045
:101C7000120074C051F075C052F076C053F077C0B6
:101C800054F041C051F042C052F043C053F044C040
:101C900054F0810E456EFF0E466E51C047F052C0A3
:101CA00048F053C049F054C04AF0180E5DEF0EF0F2
:101CB000D8904A32493248324732E82E58EF0EF077
:101CC000475045244F6E000E4620506E50BE72EFB6
:101CD0000EF0505009E1170E4F5CD8A072EF0EF0D5
:101CE00074EF0EF07EEF0EF041C041F042C042F0C2
:101CF00043C043F044C044F041EF0FF050BE83EFC7
:101D00000EF085EF0EF0F5EF0EF04FC045F0FF0E30
:101D1000466EFF0E476E7F0E486E000E496E45669A
:101D200094EF0EF09CEF0EF04934493248324732BE
:101D30004632452E8FEF0EF046C04BF047C04CF0B8
:101D400048C04DF049C04EF04B505114456E4C50B8
:101D50005214466E4D505314476E4E505414486EF4
:101D60004550461047104810D8A4B9EF0EF0BBEF0D
:101D70000EF0BDEF0EF074EF0EF051C045F052C002
:101D800046F053C047F054C048F0200ECDEF0EF09F
:101D9000D8904832473246324532E82EC8EF0EF02E
:101DA0004550461047104810D8B4D9EF0EF0DBEF7D
:101DB0000EF0E3EF0EF04B5051264C5052224D5096
:101DC00053224E5054224B1C456E4C1C466E4D1CEB
:101DD000476E4E1C486E455051164650521647509D
:101DE00053164850541639EF0FF051C045F052C009
:101DF00046F053C047F054C048F0200E05EF0FF0F6
:101E0000D8904832473246324532E82E00EF0FF084
:101E10004550461047104810D8A411EF0FF013EFAB
:101E20000FF01DEF0FF0000E516E000E526E000EFF
:101E3000536E000E546E39EF0FF0D8905134456E4A
:101E40005234466E5334476E5434486E45504610F3
:101E500047104810D8B42FEF0FF031EF0FF039EFE3
:101E60000FF0000E516E000E526E800E536EBF0EBC
:101E7000546E51C041F052C042F053C043F054C0C0
:101E800044F012005E50D96EDA6ADFCFF6FF060E1C
:101E9000F76E0800F550250AD8A451EF0FF053EF64
:101EA0000FF017EF10F05E50D96EDA6ADF2A000EDD
:101EB0000001D26F000ED16FD1C07CF0D369D4691C
:101EC0005E50D96EDA6ADFCFF6FF060EF76E0800B5
:101ED000F5502E0AD8A46FEF0FF071EF0FF07FEFDF
:101EE0000FF05E50D96EDA6ADF2A5EC001F05FC083
:101EF00002F0B0EC13F001C0D3F002C0D4F05E5099
:101F0000D96EDA6ADF50666E66C0F6FF060EF76EAF
:101F10000800F5CF65F097EF0FF0662AA6EF0FF0F7
:101F20006C0E656EA6EF0FF0656AA6EF0FF06550B8
:101F30004C0AD8B48DEF0FF02A0AD8B490EF0FF006
:101F40000A0AD8B48DEF0FF094EF0FF066C0F6FFD9
:101F5000060EF76E0800F550660AD8A4B2EF0FF02F
:101F6000B4EF0FF011EF10F0DEEF0FF05F50D96E0D
:101F7000DA6ADFCF60F0040EDF266050D96EDA6ACD
:101F8000DECF61F0DECF62F0DECF63F0DECF64F053
:101F9000E9EF0FF05F50D96EDA6ADFCF60F0040E20
:101FA000DF266050D96EDA6ADECF61F0DECF62F0F4
:101FB000DECF63F0DECF64F0E9EF0FF065504C0A3E
:101FC000D8B4CAEF0FF0200AD8B4B6EF0FF0E9EF9B
:101FD0000FF05E50D96EDA6A6628DF6E05EF10F0FA
:101FE0005DC055F061C056F062C057F063C058F054
:101FF00064C059F066C0F6FF060EF76E0800F5CF14
:102000005AF011EC03F028EF10F066C0F6FF060E50
:10201000F76E0800F550660AD8B4F0EF0FF011EF34
:1020200010F05E50D96EDA6ADF2A28EF10F05E50A9
:10203000D96EDA6ADFCFF6FF060EF76E0800F550AC
:10204000016E026A5DC003F006EC13F011EF10F0B0
:102050001200096E0950D8B430EF10F032EF10F0D2
:1020600054EF10F004BE39EF10F037EF10F054EFDA
:1020700010F001C005F002C006F003C007F004C074
:1020800008F0051E061E071E081E052A000E062261
:102090000722082205C00BF006C00CF007C00DF0A7
:1020A00008C00EF05CEF10F001C00BF002C00CF0A5
:1020B00003C00DF004C00EF0015002100310041014
:1020C000D8A465EF10F067EF10F071EF10F0000E7C
:1020D000016E000E026E000E036E000E046E02EF23
:1020E00011F0960E0A6E7BEF10F00A2AD8900E328D
:1020F0000D320C320B32000E0B14056E000E0C1458
:10210000066E000E0D14076EFE0E0E14086E0550BE
:10211000061007100810D8A490EF10F092EF10F0FE
:1021200075EF10F0A0EF10F00A2A010E0B26000E3A
:102130000C220D220E22D8900E320D320C320B32B0
:10214000000E0B14056E000E0C14066E000E0D141E
:10215000076EFF0E0E14086E0550061007100810CB
:10216000D8A4B5EF10F0B7EF10F094EF10F0BFEF78
:1021700010F00A06D8900B360C360D360E360DBE12
:10218000C4EF10F0C6EF10F0CEEF10F0020E0A60B0
:10219000CCEF10F0CEEF10F0B9EF10F00AB0D3EFA3
:1021A00010F0D5EF10F0D6EF10F00D9ED8900A3257
:1021B0000AC005F0066A076A086A05C008F0076ADF
:1021C000066A056A05500B1206500C1207500D12D4
:1021D00008500E120950D8B4F0EF10F0F2EF10F0E2
:1021E000FAEF10F004BEF9EF10F0F7EF10F0FAEF8D
:1021F00010F00E8E0BC001F00CC002F00DC003F009
:102200000EC004F01200033404340A6E0A50D8A43D
:102210000CEF11F00EEF11F018EF11F0000E016E3F
:10222000000E026E000E036E000E046E85EF11F0BC
:1022300001C005F002C006F003C007F004C008F0BA
:10224000200E28EF11F0D8900832073206320532FE
:10225000E82E23EF11F00550096E038EFF0E0116D4
:10226000FF0E0216FF0E0316000E0416960E0A5EEF
:102270000ABE3FEF11F03DEF11F055EF11F00A509B
:10228000800A970FD8B047EF11F049EF11F04BEFEC
:1022900011F00EEF11F0D890043203320232013205
:1022A0000A3E4BEF11F06DEF11F01F0E0A645BEF69
:1022B00011F05DEF11F065EF11F00EEF11F0D89015
:1022C00001360236033604360A060A50D8A46BEFEC
:1022D00011F06DEF11F05FEF11F00950D8B473EF0A
:1022E00011F075EF11F07DEF11F0041E031E021EB8
:1022F000016C000E02220322042201C001F002C080
:1023000002F003C003F004C004F01200000E281411
:10231000306E000E2914316E800E2A14326E7F0E3C
:102320002B14336E3050311032103310D8A49BEF81
:1023300011F09DEF11F0A5EF11F0000E286E000EC8
:10234000296E000E2A6E000E2B6E000E2C14306EBD
:10235000000E2D14316E800E2E14326E7F0E2F144F
:10236000336E3050311032103310D8A4BAEF11F060
:10237000BCEF11F0C4EF11F0000E2C6E000E2D6EAC
:10238000000E2E6E000E2F6E2BAEC9EF11F0CBEFAC
:1023900011F0D4EF11F0286C291ED8B0292A2A1E7A
:1023A000D8B02A2A800E2B562FAED9EF11F0DBEFD2
:1023B00011F0E4EF11F02C6C2D1ED8B02D2A2E1E3A
:1023C000D8B02E2A800E2F56000E281A000E291A79
:1023D000000E2A1A800E2B1A000E2C1A000E2D1A2F
:1023E000000E2E1A800E2F1A2C50285C2D502958C2
:1023F0002E502A582F502B58D8B001EF12F003EF6F
:1024000012F006EF12F0D89007EF12F0D880120009
:10241000770ED36E5CEC16F04DEC16F036EC16F041
:10242000000E036E000E6BEC16F0010E036E0350EF
:10243000D8A4060E046E85EC14F00B0E0001B66FE6
:10244000260EB56F5D0EE82EFED7B52FFCD7B62F42
:10245000FAD700D0020EDFEC14F001C0CDF002C0BC
:10246000CEF0CDC041F0CEC042F002EC14F041C03D
:10247000C9F042C0CAF043C0CBF044C0CCF0C7C0E2
:10248000CFF0C8C0D0F0040E0001D05DD8A04BEF53
:1024900012F04DEF12F050EF12F0030ED06FCF6933
:1024A000CFC001F0D0C002F00AEC15F0000E036EB0
:1024B000010E6BEC16F00E0E036E0350D8A4060E40
:1024C000046E85EC14F0B70E0001AF6F140EB06F00
:1024D000C9C0B1F0CAC0B2F0CBC0B3F0CCC0B4F048
:1024E000FEEC15F0B70E036E046A85EC14F0030ED3
:1024F0000001B66F080EB56F770EE82EFED7B52F28
:10250000FCD7B62FFAD72AEF12F0FEEF3FF078C0D3
:102510000BF079C00CF07AC00DF07BC00EF001C05A
:102520000BF002C00CF003C00DF004C00EF00BC0A5
:1025300005F00CC006F00DC007F00EC008F0180E34
:10254000A7EF12F0D8900832073206320532E82E93
:10255000A2EF12F00550096E0A6A09500A10D8A4B9
:10256000B4EF12F0B6EF12F0D6EF12F0D8900B34B1
:10257000056E0C34066E0D34076E0E34086E055071
:10258000061007100810D8A4C8EF12F0CAEF12F016
:10259000D0EF12F0000E026E020E016E05EF13F086
:1025A000000E026E030E016E05EF13F009280A10EB
:1025B000D8A4DDEF12F0DFEF12F001EF13F00BC043
:1025C00005F00CC006F00DC007F00EC008F0090EB3
:1025D000D8900536063607360836E82EE8EF12F0B2
:1025E0000550061007100810D8B4F9EF12F0FCEFF0
:1025F00012F0010EFDEF12F0000E016E026A05EFFF
:1026000013F0000E026E040E016E12000350D8B4D7
:102610000CEF13F00EEF13F016EF13F00350D8A4E5
:1026200014EF13F016EF13F01BEF13F0015094ECBE
:1026300016F05AEF13F00350D96EDA6A090ED92654
:10264000DE50DE10D8B427EF13F029EF13F042EF7D
:1026500013F00350D96EDA6A090ED9260350E16EE1
:10266000E26A020EE126DE50E65CE650800A086E61
:10267000DE50800A0858D8B040EF13F042EF13F054
:102680005AEF13F00350D96EDA6A020ED926DF50E2
:10269000046E0350D96EDA6ADF500424D96EDA6A08
:1026A00001C0DFFF0350D96EDA6A020ED926DE2A96
:1026B000000EDD221200000E0114096E000E02143D
:1026C0000A6E800E03140B6E7F0E04140C6E0950FC
:1026D0000A100B100C10D8A470EF13F072EF13F067
:1026E0007AEF13F0000E016E000E026E000E036E04
:1026F000000E046E000E0514096E000E06140A6E1C
:10270000800E07140B6E7F0E08140C6E09500A1011
:102710000B100C10D8A48FEF13F091EF13F099EF7A
:1027200013F0000E056E000E066E000E076E000E12
:10273000086E055001180FE1065002180CE1075011
:10274000031809E108500418D8B4A9EF13F0ABEF4F
:1027500013F0AEEF13F0D890AFEF13F0D880120063
:10276000000E076E000E066E0150D96EDA6ADFCFDA
:10277000F6FF060EF76E0800F5502A0AD8A4C3EF3C
:1027800013F0C5EF13F0EAEF13F00150D96EDA6AD7
:10279000DF2A0250D96EDA6A020EDF26DF5CD96EBC
:1027A000DA6ADECF06F0DECF07F0FDEF13F00A0E97
:1027B0000602F3CF03F0F4CF04F00702F35004262F
:1027C00005500324066E000E0420076E0150D96EDA
:1027D000DA6ADF2A0150D96EDA6ADFCFF6FF060E19
:1027E000F76E0800F550D00F056E090E0564FBEF7B
:1027F00013F0FDEF13F0D7EF13F006C001F007C0A0
:1028000002F01200000E136E000E146EA00E156E74
:10281000400E166E41C001F042C002F0036A046A25
:10282000000E29EC10F001C00FF002C010F003C040
:1028300011F004C012F05EEC0AF00FC045F010C0B9
:1028400046F011C047F012C048F0000E136E000EA3
:10285000146EC80E156E420E166E45C00FF046C0BF
:1028600010F047C011F048C012F05EEC0AF00FC043
:1028700028F010C029F011C02AF012C02BF0000E71
:102880002C6EC00E2D6E7F0E2E6E440E2F6E71ECD0
:102890000CF028C041F029C042F02AC043F02BC000
:1028A00044F0120013BE59EF14F057EF14F05DEF2F
:1028B00014F0000E136E000E126E000E166E000E57
:1028C000156E6DEF14F0000E026E200E016E0FC03B
:1028D00003F006EC13F0154A162A1250155C165038
:1028E000800A146E1350800A1458D8A07AEF14F09E
:1028F0007CEF14F063EF14F010C009F011C00AF07F
:102900000FC00BF0C1EC15F012009BEF14F003C0E8
:10291000F6FF04C0F7FFF86A050EF76403D008005D
:10292000F55005D0F6CFE1FFF7CFE2FFE75085EC99
:1029300016F0034A042A03C0F6FF04C0F7FFF86A42
:10294000050EF76403D00800F55005D0F6CFE1FF7F
:10295000F7CFE2FFE7500009D8A4B1EF14F0B3EFCE
:1029600014F087EF14F0120004BEB9EF14F0BBEFBF
:1029700014F0C5EF14F001C001F002C002F003C072
:1029800003F004C004F0DEEF14F001C005F002C053
:1029900006F003C007F004C008F0051E061E071E5F
:1029A000081E052A000E06220722082205C001F093
:1029B00006C002F007C003F008C004F01200056E64
:1029C0000D0E0564E6EF14F0E8EF14F0EEEF14F0EE
:1029D000000E026E000E016E09EF15F0C50EC21654
:1029E0000544E846FC0BC212030EE82EFED7000099
:1029F000C282C2B2FEEF14F000EF15F0F9EF14F04E
:102A0000C450046E036AC3500324016E000E0420F8
:102A1000026E120002BE0FEF15F011EF15F033EF4A
:102A200015F002BE1DEF15F0040E025CD8B01BEFCE
:102A300015F01DEF15F033EF15F001C003F002C0E3
:102A400004F00434043203320434043203320350F9
:102A5000BE6E01C003F0030E0316033ABD50031807
:102A6000CF0B0318BD6E120003C009F004C00AF0BA
:102A700001C007F002C008F04EEF15F009C0D9FF01
:102A80000AC0DAFFDF500B6E094A0A2A07C0D9FFD5
:102A900008C0DAFF0BC0DFFF074A082A0506D8A0E6
:102AA0000606052806E10628D8A459EF15F05BEFC5
:102AB00015F03EEF15F01200000E2C1A000E2D1A24
:102AC000000E2E1A800E2F1A28C001F029C002F025
:102AD0002AC003F02BC004F02CC005F02DC006F076
:102AE0002EC007F02FC008F003EC08F001C028F05A
:102AF00002C029F003C02AF004C02BF01200260EF9
:102B0000F66E2D0EF76E000EF86E0900F5CF7DF013
:102B10000900F5CF7EF001EE00F0500EEE6AE806F7
:102B2000FDE10001D46BD36BD26BD16B00EE74F07E
:102B3000090EEE6AE806FDE1000EF86E000108EFEE
:102B400012F0ADC067F0ADEF15F0ACC05DF0670EF0
:102B50005E6EAEC05FF042EC0FF067C0F6FF060E8F
:102B6000F76E0800F5500009D8A4B9EF15F0BBEFD7
:102B700015F0A5EF15F0000E0001AD6F000EAC6F63
:102B80001200000E0E6E000E0D6ED0EF15F00CC090
:102B900001F0026A0BC003F006EC13F00D4A0E2A96
:102BA0000D500924D96E0E500A20DA6EDF500C6EDB
:102BB0000C50D8A4DEEF15F0E0EF15F0C7EF15F0DC
:102BC000120001C005F002C006F0032A0304046EDF
:102BD00004C0F6FF060EF76E05C0D9FF06C0DAFF87
:102BE000054A062A0800F5CFDFFFDF50D8A4FBEF27
:102BF00015F0FDEF15F0E5EF15F01200B10E686E5F
:102C0000AFC069F0000E6C6E000E6B6E000E736E3E
:102C1000000E726E690E0001AC6FB0C0ADF0680EB0
:102C2000AE6FA1EC15F00001AF516B24D96EDA6ADA
:102C3000DF6A12000150021003100410D8B423EF11
:102C400016F025EF16F02DEF16F0000E011A000E0B
:102C5000021A000E031A800E041A01C001F002C00D
:102C600002F003C003F004C004F01200936A959EC2
:102C70009592340E036EF20EE82EFED7032EFCD78B
:102C8000380E8CEC16F00C0E8CEC16F0060E8CEC5C
:102C900016F0010E8CEC16F01200F90ECB6E3F0E02
:102CA000BD169494CA50FC0B0209CA6ECA84BD506A
:102CB000F00B0C09BD6E12000C0E926EC30EC21604
:102CC000C2800C0EC16EC08EC050C70B0809C06E0A
:102CD000F80EC0161200066E7DC004F07EC005F02E
:102CE0000650040FD96EDA6ADF5003248CEC16F01C
:102CF0001200838200D08392060E016E300EE82E01
:102D0000FED7012EFCD700D01200026E838E02C0C7
:102D100081FF79EC16F01200026E839E02C081FFE3
:0A2D200079EC16F0120080C01200DA
:047FFC007FEF15F00E
:020000040030CA
:0E000000FF08191EFF8180FF0FC00FE00F40A8
:00000001FF
