:0400000007EF00F016
:0A0008007F823AED18F0E8EF19F0DE
:10060000002A2A2A2A2150657269676F212A2A2A1C
:100610002A002D2D2D2D4174656E63616F212D2DC6
:100620002D2D002D2D2D2D2D2D2D4F6B2D2D2D2DC7
:100630002D2D2D0044485431312054656D3A20252C
:10064000642E25640044485431312048756D3A20A9
:1006500025642E2564004C4D33353A20252E326614
:10066000B0204320004C4D333520616E64204C4453
:10067000520044485431312056616C75657300490D
:100680006E696369616E646F00696E66006E616EAB
:10069000002E00000001A16B56C0A4F057C0A5F0C9
:1006A00058C0A6F059C0A7F0A7BF5BEF03F059EF01
:1006B00003F06FEF03F0010EA16FA4C001F0A5C01D
:1006C00002F0A6C003F0A7C004F0A9EC1AF001C024
:1006D000A4F002C0A5F003C0A6F004C0A7F0000E6D
:1006E0000001A36F000EA26FDAC091F0DBC092F0A0
:1006F000A151D8B47EEF03F080EF03F094EF03F044
:10070000A151D8A486EF03F088EF03F08EEF03F039
:10071000000E876F2B0E866F92EF03F0000E876F2F
:100720002D0E866F86C0A1F0A4C001F0A5C002F016
:10073000A6C003F0A7C004F0B7EC15F00104021046
:10074000D8A4A5EF03F0A7EF03F0D6EF03F0000164
:10075000A151D8B4AEEF03F0B0EF03F0B9EF03F05E
:10076000A1C000F19107D8A09207000EA36F010E5F
:10077000A26F000EA225016E010EA321026E890E4A
:10078000036E70EC1AF00001FD0E9127FF0E92230C
:1007900055C00FF0000E106E010E116E91C012F0D8
:1007A00092C013F0B4EC18F03BEF08F0A4C001F0D5
:1007B000A5C002F0A6C003F0A7C004F0B7EC15F086
:1007C00001500210D8A4E7EF03F0E9EF03F007EFC0
:1007D00004F00001A151D8B4F0EF03F0F2EF03F000
:1007E000FBEF03F0A1C000F19107D8A09207000E23
:1007F000A36F010EA26F000EA225016E010EA321B0
:10080000026E8D0E036E70EC1AF0C3EF03F0000E53
:100810000001A86F000EA96F800EAA6F3F0EAB6F8C
:10082000000E906F000E8F6FA4C001F0A5C002F003
:10083000A6C003F0A7C004F0000E056E000E066E01
:10084000000E076E000E086EEEEC16F0D8B02BEF1F
:1008500004F02DEF04F00CEF05F03AEF04F093C034
:10086000A8F094C0A9F095C0AAF096C0ABF0000122
:100870008F4B902BA8C00FF0A9C010F0AAC011F0A8
:10088000ABC012F0000E136E000E146E200E156E2B
:10089000410E166E15EC0DF00FC093F010C094F0E1
:1008A00011C095F012C096F000019351A45D016E45
:1008B0009451A559026E9551A659036E9651A759A8
:1008C000046E42EC19F004BE71EF04F00450031002
:1008D000021009E1020E015CD8A071EF04F073EF81
:1008E00004F02FEF04F093C028F094C029F095C0D5
:1008F0002AF096C02BF0A4C02CF0A5C02DF0A6C005
:100900002EF0A7C02FF035EC15F0D8A08AEF04F038
:100910008CEF04F02FEF04F00001A851A45D016EEC
:10092000A951A559026EAA51A659036EAB51A759F8
:10093000046E42EC19F004BEABEF04F00450031057
:10094000021007E1020E015CD8B0A9EF04F0ABEF92
:1009500004F0F3EF04F0A8C0A4F0A9C0A5F0AAC069
:10096000A6F0ABC0A7F00CEF05F0A8C028F0A9C016
:1009700029F0AAC02AF0ABC02BF0000E2C6E000E9E
:100980002D6E200E2E6E410E2F6E28EC0FF028C01B
:10099000A8F029C0A9F02AC0AAF02BC0ABF0000132
:1009A0008F07D8A09007A851A45D016EA951A55941
:1009B000026EAA51A659036EAB51A759046E42ECC0
:1009C00019F004BEF1EF04F004500310021007E127
:1009D000020E015CD8B0EFEF04F0F1EF04F0F3EF9A
:1009E00004F0ABEF04F0A4C028F0A5C029F0A6C025
:1009F0002AF0A7C02BF0A8C02CF0A9C02DF0AAC0E7
:100A00002EF0ABC02FF035EC15F0D8A00AEF05F0B2
:100A10000CEF05F0B5EF04F05AC089F089C08AF0F8
:100A20000001DDBF16EF05F018EF05F01EEF05F031
:100A3000DCC082F0DDC083F022EF05F0000E836F92
:100A4000060E826F82C08DF083C08EF08D4B8E2B90
:100A5000660E8A19D8A42FEF05F031EF05F051EF9B
:100A600005F090BF38EF05F036EF05F044EF05F0E4
:100A7000000EA86F000EA96F800EAA6F3F0EAB6F1D
:100A8000000E906F000E8F6F670E8919D8B44BEF70
:100A900005F04DEF05F051EF05F08F518D27905186
:100AA0008E23000E986F000E976FA4C099F0A5C01A
:100AB0009AF0A6C09BF0A7C09CF0A8C093F0A9C074
:100AC00094F0AAC095F0ABC096F0E2EF05F099C0A3
:100AD00028F09AC029F09BC02AF09CC02BF0A8C037
:100AE0002CF0A9C02DF0AAC02EF0ABC02FF028EC3E
:100AF0000FF028C041F029C042F02AC043F02BC0BB
:100B000044F013EC12F041C09DF042C09EF043C08F
:100B10009FF044C0A0F09DC001F09EC002F09FC0B5
:100B200003F0A0C004F0B2EC14F001C08BF002C0DE
:100B30008CF099C028F09AC029F09BC02AF09CC084
:100B40002BF09DC013F09EC014F09FC015F0A0C004
:100B500016F0A8C00FF0A9C010F0AAC011F0ABC0E9
:100B600012F015EC0DF00FC02CF010C02DF011C0DC
:100B70002EF012C02FF00DEC1AF028C099F029C009
:100B80009AF02AC09BF02BC09CF0A8C028F0A9C006
:100B900029F0AAC02AF0ABC02BF0000E2C6E000E7C
:100BA0002D6E200E2E6E410E2F6E28EC0FF028C0F9
:100BB000A8F029C0A9F02AC0AAF02BC0ABF0000110
:100BC000974B982B8D51975D9851800A5B6E8E5193
:100BD000800A5B58D8A0EFEF05F0F1EF05F067EF62
:100BE00005F0A8C00FF0A9C010F0AAC011F0ABC06A
:100BF00012F0000E136E000E146EA00E156E400E55
:100C0000166E15EC0DF00FC09DF010C09EF011C0D7
:100C10009FF012C0A0F099C028F09AC029F09BC0A4
:100C20002AF09CC02BF09DC02CF09EC02DF09FC0E0
:100C30002EF0A0C02FF035EC15F0D8B022EF06F062
:100C400024EF06F02FEF06F0000E00019D6F000E5E
:100C50009E6F000E9F6F000EA06F58EF06F099C0B8
:100C600001F09AC002F09BC003F09CC004F09DC04C
:100C700005F09EC006F09FC007F0A0C008F0EEECA3
:100C800016F0D8A046EF06F048EF06F058EF06F051
:100C900000018BB14EEF06F050EF06F058EF06F072
:100CA000000E9D6F000E9E6F000E9F6F000EA06FD6
:100CB000A4C001F0A5C002F0A6C003F0A7C004F0D4
:100CC0009DC005F09EC006F09FC007F0A0C008F0D0
:100CD000BAEC0AF001C099F002C09AF003C09BF090
:100CE00004C09CF099C028F09AC029F09BC02AF05B
:100CF0009CC02BF0000E136E000E146E200E156EAD
:100D0000410E166E93C00FF094C010F095C011F014
:100D100096C012F015EC0DF00FC02CF010C02DF0A5
:100D200011C02EF012C02FF035EC15F0D8A09BEFBB
:100D300006F09DEF06F0C6EF06F000018F4B902BFA
:100D400093C00FF094C010F095C011F096C012F04F
:100D5000000E136E000E146E200E156E410E166EF0
:100D600015EC0DF00FC093F010C094F011C095F089
:100D700012C096F0660E00018A19D8A4C2EF06F0E0
:100D8000C4EF06F0C6EF06F08D4B8E2B93C0A8F093
:100D900094C0A9F095C0AAF096C0ABF08FC080F0C7
:100DA00090C081F00001886B000E856F000E846F8B
:100DB000000E986F000E976FC3EF07F099C028F0F0
:100DC0009AC029F09BC02AF09CC02BF0A8C02CF040
:100DD000A9C02DF0AAC02EF0ABC02FF028EC0FF068
:100DE00028C041F029C042F02AC043F02BC044F093
:100DF00013EC12F041C09DF042C09EF043C09FF042
:100E000044C0A0F09DC001F09EC002F09FC003F05E
:100E1000A0C004F0B2EC14F002BE1AEF07F00250CA
:100E200007E10A0E015CD8B018EF07F01AEF07F0DF
:100E30002AEF07F09DC001F09EC002F09FC003F0B2
:100E4000A0C004F0B2EC14F001C08BF002C08CF032
:100E50002FEF07F0000E00018C6F090E8B6F000161
:100E60008851D8A436EF07F038EF07F060EF07F0AD
:100E700081BF3FEF07F03DEF07F060EF07F0000E96
:100E8000A225D96E010EA321DA6E2E0EDF6EA24BC3
:100E9000A32B9107D8A09207010E886F60EF07F08F
:100EA000000EA225D96E010EA321DA6E300EDF6E80
:100EB000A24BA32B9107D8A092078407D8A085073F
:100EC00084518511D8A467EF07F069EF07F050EF60
:100ED00007F0000EA225D96E010EA321DA6E8B5108
:100EE000300FDF6EA24BA32B9107D8A0920799C0B9
:100EF00028F09AC029F09BC02AF09CC02BF09DC01E
:100F000013F09EC014F09FC015F0A0C016F0A8C04A
:100F10000FF0A9C010F0AAC011F0ABC012F015EC90
:100F20000DF00FC02CF010C02DF011C02EF012C02B
:100F30002FF00DEC1AF028C099F029C09AF02AC0C1
:100F40009BF02BC09CF0A8C028F0A9C029F0AAC033
:100F50002AF0ABC02BF0000E2C6E000E2D6E200E72
:100F60002E6E410E2F6E28EC0FF028C0A8F029C07D
:100F7000A9F02AC0AAF02BC0ABF000018007D8A0CE
:100F80008107974B982B8D51975D9851800A5B6E26
:100F90008E51800A5B58D8B0D0EF07F0D2EF07F03F
:100FA000E0EF07F0A3BFDEEF07F0A35109E14B0E1E
:100FB000A25DD8A0DEEF07F0E0EF07F0DEEF06F06D
:100FC000000E986F4F0E976F000E9725D96E010E89
:100FD0009821DA6EDF6A000E5B6E010E5C6EA25124
:100FE0005B5EA3515C5A97515B24016E98515C2063
:100FF000026E000E036E010E046EA2C005F0A3C0C7
:1010000006F0C0EC19F00001A251975DA26FA35148
:101010009859A36FA151D8A410EF08F013EF08F06E
:10102000010E14EF08F0000E976F986BA151D8B421
:101030001CEF08F01EEF08F029EF08F0A207D8A077
:10104000A307000EA225D96E010EA321DA6EA1C05E
:10105000DFFF9751915F9851925B55C00FF0000EE2
:10106000A225106E010EA321116E91C012F092C044
:1010700013F0B4EC18F01200770ED36EF28EF28CEF
:10108000F28AF2949D8C9E9CF00ED76EBE0ED66EA8
:10109000870ED56E61EC1BF01EEC1BF0DFEC1AF036
:1010A000020E036E000E2DEC1BF07F0E036E03503C
:1010B000D8A4060E046EE7EC18F00B0E0001CD6FFD
:1010C000CDC003F0000E2DEC1BF0910E036E03500B
:1010D000D8A4060E046EE7EC18F0060E756E130E1B
:1010E000746EAE0EE82EFED7742EFCD7752EFAD78E
:1010F0000001CD2B0D0ECD6580EF08F082EF08F0DA
:1011000060EF08F03BEC1BF00001E251E311D8A4C2
:101110008CEF08F08EEF08F06DEF09F0020E036E11
:10112000000E2DEC1BF0650E036E0350D8A4060EC6
:10113000046EE7EC18F00B0E756E260E746E5E0EE4
:10114000E82EFED7742EFCD7752EFAD73BEC1BF099
:101150000001E451E511D8A4B0EF08F0B2EF08F0B7
:10116000E0EF08F0020E97EC19F001C0DEF002C0CB
:10117000DFF0DEC041F0DFC042F0EAEC17F041C022
:10118000D2F042C0D3F043C0D4F044C0D5F0000E3A
:10119000036E000E2DEC1BF0B50E0001AF6F560E66
:1011A000B06FD2C0B1F0D3C0B2F0D4C0B3F0D5C0EC
:1011B000B4F08DEC1AF0B50E036E046AE7EC18F08B
:1011C0000001E405E511D8A4E8EF08F0EAEF08F023
:1011D000C9EF09F0040E97EC19F001C0E0F002C06D
:1011E000E1F0E0C041F0E1C042F07EEC18F041C017
:1011F000D6F042C0D7F043C0D8F044C0D9F0000EBA
:10120000036E010E2DEC1BF0000E286E000E296EF1
:10121000C00E2A6E3F0E2B6ED6C02CF0D7C02DF01C
:10122000D8C02EF0D9C02FF035EC15F0D8A01BEFA8
:1012300009F01DEF09F027EF09F0230E036E0350AC
:10124000D8A4060E046EE7EC18F0C9EF09F0000E02
:10125000286E000E296EC00E2A6E3F0E2B6ED6C071
:101260002CF0D7C02DF0D8C02EF0D9C02FF035EC1F
:1012700015F0D8B03EEF09F040EF09F063EF09F048
:10128000D6C028F0D7C029F0D8C02AF0D9C02BF09A
:10129000000E2C6E000E2D6E400E2E6E400E2F6E28
:1012A00035EC15F0D8B057EF09F059EF09F063EFBE
:1012B00009F0120E036E0350D8A4060E046EE7EC7C
:1012C00018F0C9EF09F0010E036E0350D8A4060E02
:1012D000046EE7EC18F0C9EF09F00CEC1BF016EC0B
:1012E00019F00001C66F16EC19F00001C56F16EC7D
:1012F00019F00001C86F16EC19F00001C76F16EC69
:1013000019F0020E036E000E2DEC1BF0720E036E30
:101310000350D8A4060E046EE7EC18F00B0E756EA1
:10132000260E746E5E0EE82EFED7742EFCD7752E38
:10133000FAD73BEC1BF0000E036E000E2DEC1BF0F9
:10134000B50E0001AF6F450EB06FC6C0B1F0B26B05
:10135000C5C0B3F0B46B8DEC1AF0B50E036E046A21
:10136000E7EC18F0000E036E010E2DEC1BF0B50E2D
:101370000001AF6F340EB06FC8C0B1F0B26BC7C020
:10138000B3F0B46B8DEC1AF0B50E036E046AE7ECA3
:1013900018F0D2C028F0D3C029F0D4C02AF0D5C0AC
:1013A0002BF0000E2C6E000E2D6EAA0E2E6E420E2D
:1013B0002F6E35EC15F0D8A0E0EF09F0E2EF09F060
:1013C000A4EF0AF0000E286E000E296E400E2A6E61
:1013D000400E2B6ED6C02CF0D7C02DF0D8C02EF00A
:1013E000D9C02FF035EC15F0D8B0F9EF09F0FBEFCC
:1013F00009F0A4EF0AF0000E0001CA6F010EC96FD8
:10140000000ECC6F000ECB6F020E97EC19F001C0EE
:10141000DEF002C0DFF0DEC041F0DFC042F0EAECF7
:1014200017F041C0D2F042C0D3F043C0D4F044C062
:10143000D5F0040E97EC19F001C0E0F002C0E1F025
:10144000E0C041F0E1C042F07EEC18F041C0D6F0BF
:1014500042C0D7F043C0D8F044C0D9F0D2C028F081
:10146000D3C029F0D4C02AF0D5C02BF0000E2C6ECA
:10147000000E2D6E700E2E6E420E2F6E35EC15F096
:10148000D8A045EF0AF047EF0AF0AAEF0AF0000EE5
:10149000286E000E296E200E2A6E400E2B6ED6C0CE
:1014A0002CF0D7C02DF0D8C02EF0D9C02FF035ECDD
:1014B00015F0D8A05EEF0AF060EF0AF062EF0AF0D4
:1014C000AAEF0AF0CBC001F0CCC002F06DEC19F02D
:1014D0000001C951CA11D8B470EF0AF072EF0AF0D6
:1014E00087EF0AF0CB4BCC2BCCBF7FEF0AF0CB2998
:1014F000030ECC59D8A07FEF0AF081EF0AF09BEFE2
:101500000AF0000ECA6F000EC96F9BEF0AF0CB07FE
:10151000D8A0CC07CCBF97EF0AF0CC5106E1CB05A1
:10152000D8B095EF0AF097EF0AF09BEF0AF0000EA3
:10153000CA6F010EC96F0D0E746EFC0EE82EFED739
:10154000742EFCD704EF0AF0000E026E000E016E3E
:101550006DEC19F0150E756E4B0E746EBE0EE82E06
:10156000FED7742EFCD7752EFAD700D082EF08F084
:1015700007EF00F00450800B0D6E045004240F6E32
:1015800003AEC5EF0AF0C7EF0AF0C8EF0AF00F800C
:101590000F50D8B4CEEF0AF0D0EF0AF0E4EF0AF023
:1015A0000F28D8A4D6EF0AF0D8EF0AF0E0EF0AF03F
:1015B000000E016E000E026E000E036E000E046E31
:1015C000038E046AECEF0AF0000E016E000E026E4C
:1015D000000E036E000E046E0850800B0E6E0D5050
:1015E0000E18D8B4F6EF0AF0F8EF0AF0F9EF0AF0A7
:1015F0000D8C085008240E6E07AE01EF0BF003EFC0
:101600000BF004EF0BF00E800E50D8B40AEF0BF085
:101610000CEF0BF020EF0BF00E28D8A412EF0BF01C
:1016200014EF0BF01CEF0BF0000E056E000E066EB3
:10163000000E076E000E086E078E086A28EF0BF08A
:10164000000E056E000E066E000E076E000E086E90
:101650000F500E5CD8B02FEF0BF031EF0BF058EFBE
:101660000BF00DAC36EF0BF038EF0BF03AEF0BF060
:10167000800E0D1A0FC010F00EC00FF010C00EF04B
:1016800001C010F005C001F010C005F002C010F05C
:1016900006C002F010C006F003C010F007C003F04F
:1016A00010C007F004C010F008C004F010C008F02B
:1016B000106A0F500EC009F00A6A095E000E0A5A3D
:1016C0000ABE6CEF0BF00A5009E11A0E095CD8A0B3
:1016D0006CEF0BF06EEF0BF0A5EF0BF0015002106A
:1016E00003100410D8A477EF0BF07AEF0BF0010E83
:1016F0007BEF0BF0000E106E000E016E000E026EFE
:10170000000E036E000E046E0EC00FF0AEEF0BF075
:1017100010A08DEF0BF08FEF0BF095EF0BF0D89042
:1017200010300109106E97EF0BF0D890103201A025
:101730009CEF0BF09EEF0BF09FEF0BF0108E04343C
:1017400004320332023201320F2A0E500F5CD8A04D
:10175000ACEF0BF0AEEF0BF088EF0BF00DBCB3EF7E
:101760000BF0B5EF0BF0F5EF0BF00F50D8A4BBEF7B
:101770000BF0BDEF0BF0C7EF0BF0000E016E000E8B
:10178000026E000E036E000E046E14EF0DF0055095
:10179000012606500222075003220850042204A00A
:1017A000D4EF0BF0D6EF0BF082EF0CF010A0DBEFD4
:1017B0000BF0DDEF0BF0E3EF0BF0D89010300109E8
:1017C000106EE5EF0BF0D890103201A0EAEF0BF0AD
:1017D000ECEF0BF0EDEF0BF0108E0434043203321B
:1017E000023201320F2A82EF0CF00550015C0650E4
:1017F0000258075003580450800A096E0850800AA6
:101800000958D8B006EF0CF008EF0CF033EF0CF0ED
:101810000150055C096E025006580A6E03500758C5
:101820000B6E045008580C6EFF0E0924016EFF0E5B
:101830000A20026EFF0E0B20036EFF0E0C20046EBA
:10184000800E0D1A106C1050D8A429EF0CF02BEF5D
:101850000CF03BEF0CF0010E0126000E02220322D9
:1018600004223BEF0CF00550015E0650025A07506F
:10187000035A0850045A0150021003100410D8A44F
:1018800044EF0CF046EF0CF07BEF0CF01050D8A4B6
:101890004CEF0CF04EEF0CF07BEF0CF0000E016EF5
:1018A000000E026E000E036E000E046E14EF0DF0BB
:1018B000D890013602360336043610AE62EF0CF0D3
:1018C00064EF0CF065EF0CF0018010A06AEF0CF0F3
:1018D0006CEF0CF070EF0CF0D880103672EF0CF05B
:1018E000D89010360F50D8B478EF0CF07AEF0CF097
:1018F0007BEF0CF00F0603AE80EF0CF082EF0CF0E4
:1019000058EF0CF00E6A10AE88EF0CF08AEF0CF076
:10191000A2EF0CF010C009F07F0E0916D8B493EFB7
:101920000CF095EF0CF099EF0CF0010E0E6EA2EF9B
:101930000CF001A09EEF0CF0A0EF0CF0A2EF0CF069
:1019400095EF0CF00E50D8B4A8EF0CF0AAEF0CF005
:10195000D5EF0CF0010E0126000E02220322042214
:1019600004A0B5EF0CF0B7EF0CF0D5EF0CF001C010
:1019700009F002C00AF003C00BF004C00CF00C34F4
:101980000C320B320A32093209C001F00AC002F0EF
:101990000BC003F00CC004F00F28D8B4D2EF0CF049
:1019A000D4EF0CF0D5EF0CF00F2A0F28D8B4DBEFF2
:1019B0000CF0DDEF0CF0E5EF0CF00F50D8A4E3EFE6
:1019C0000CF0E5EF0CF0F6EF0CF0000E016E000EDF
:1019D000026E000E036E000E046E0F50D8A4F3EFDB
:1019E0000CF0F5EF0CF0F6EF0CF00D6A0FA0FBEF2A
:1019F0000CF0FDEF0CF000EF0DF0038E01EF0DF099
:101A0000039ED8900F30046E0DAE09EF0DF00BEF72
:101A10000DF00CEF0DF0048E01C001F002C002F0D9
:101A200003C003F004C004F012001250800B1B6EC0
:101A300012501224216E11AE20EF0DF022EF0DF0A6
:101A400023EF0DF021802150D8B429EF0DF02BEFBA
:101A50000DF03EEF0DF02128D8A431EF0DF033EF5B
:101A60000DF03BEF0DF0000E0F6E000E106E000E2D
:101A7000116E000E126E118E46EF0DF0000E0F6EFD
:101A8000000E106E000E116E000E126E1650800BBE
:101A90001B1A16501624206E15AE51EF0DF053EFA1
:101AA0000DF054EF0DF020802050D8B45AEF0DF017
:101AB0005CEF0DF06FEF0DF02028D8A462EF0DF071
:101AC00064EF0DF06CEF0DF0000E136E000E146E4F
:101AD000000E156E000E166E158E77EF0DF0000ECF
:101AE000136E000E146E000E156E000E166E205052
:101AF000D8B47DEF0DF07FEF0DF087EF0DF02150A2
:101B0000D8A485EF0DF087EF0DF091EF0DF0000EEA
:101B10000F6E000E106E000E116E000E126E27EF8B
:101B20000FF015500F02F3CF26F0F4CF27F0265018
:101B30001C6E1D6A1E6A1F6A2750226E236A246A61
:101B4000256A14501002F3CF26F0F4CF27F0265068
:101B50001C26000E1D221E221F2227502226000EA8
:101B600023222422252213501102F3CF26F0F4CF92
:101B700027F026501C26000E1D221E221F22275051
:101B80002226000E2322242225221EC01FF01DC063
:101B90001EF01CC01DF01C6A13501002F3CF26F07B
:101BA000F4CF27F026501C2627501D22000E1E229F
:101BB000000E1F2214500F02F3CF26F0F4CF27F0AF
:101BC00026501C2627501D22000E1E22000E1F220A
:101BD0001EC01FF01DC01EF01CC01DF01C6A13505B
:101BE0000F02F3CF26F0F4CF27F026501C26275003
:101BF0001D22000E1E22000E1F2215501002F3CFD0
:101C000026F0F4CF27F02650222627502322000E5C
:101C10002422000E252214501102F3CF26F0F4CF17
:101C200027F02650222627502322000E2422000EC1
:101C3000252215501102F3CF26F0F4CF27F02650BD
:101C4000176E2750186E196A1A6A19C01AF018C050
:101C500019F017C018F0176A1750222618502322BF
:101C6000195024221A5025221CC017F01DC018F04C
:101C70001EC019F01FC01AF0190E44EF0EF0D890D4
:101C80001A32193218321732E82E3FEF0EF0175081
:101C9000222618502322195024221A5025221EC011
:101CA0001FF01DC01EF01CC01DF01C6A205021C07A
:101CB00017F0186A1726000E1822820E1724266EB7
:101CC000FF0E1820276E7AEF0EF0D89022362336BA
:101CD000243625361FAE6FEF0EF071EF0EF072EF67
:101CE0000EF02280D8901C361D361E361F36260672
:101CF000D8A0270624AE7FEF0EF081EF0EF065EF3F
:101D00000EF0206A1FAE87EF0EF089EF0EF0ADEFF8
:101D10000EF0FF0E1C14176EFF0E1D14186EFF0E32
:101D20001E14196E7F0E1F141A6E175018101910FA
:101D30001A10D8B49EEF0EF0A0EF0EF0A4EF0EF044
:101D4000010E206EADEF0EF022A0A9EF0EF0ABEF6A
:101D50000EF0ADEF0EF0A0EF0EF02050D8B4B3EFC0
:101D60000EF0B5EF0EF0D9EF0EF0010E2226000EA8
:101D700023222422252225A0C0EF0EF0C2EF0EF070
:101D8000D9EF0EF022C017F023C018F024C019F0CC
:101D900025C01AF01A341A3219321832173217C005
:101DA00022F018C023F019C024F01AC025F0264AEA
:101DB000272A27BEE4EF0EF0275008E12628D8A0F6
:101DC000E4EF0EF0E6EF0EF0F0EF0EF0000E226EF4
:101DD000000E236E800E246E7F0E256E1DEF0FF019
:101DE00027BEFDEF0EF0275006E12604D8B0FBEF2A
:101DF0000EF0FDEF0EF008EF0FF0000E226E000E59
:101E0000236E000E246E000E256E1B6A1DEF0FF070
:101E100026C021F0FF0E2216FF0E23167F0E241679
:101E2000000E251621A017EF0FF019EF0FF01AEF93
:101E30000FF0248ED8902130256E1B50251222C021
:101E40000FF023C010F024C011F025C012F01200D2
:101E50002B50800B386E2B502B243F6E2AAE33EF65
:101E60000FF035EF0FF036EF0FF03F803F50D8B452
:101E70003CEF0FF03EEF0FF052EF0FF03F28D8A4E9
:101E800044EF0FF046EF0FF04EEF0FF0000E286E0C
:101E9000000E296E000E2A6E000E2B6E2A8E2B6A03
:101EA0005AEF0FF0000E286E000E296E000E2A6EFB
:101EB000000E2B6E2F50800B381A2F502F24406E9F
:101EC0002EAE65EF0FF067EF0FF068EF0FF0408078
:101ED0004050D8B46EEF0FF070EF0FF084EF0FF0BA
:101EE0004028D8A476EF0FF078EF0FF080EF0FF0D6
:101EF000000E2C6E000E2D6E000E2E6E000E2F6E3C
:101F00002E8E2F6A8CEF0FF0000E2C6E000E2D6EB1
:101F1000000E2E6E000E2F6E2C502D102E102F1036
:101F2000D8A495EF0FF097EF0FF0AFEF0FF0000E82
:101F3000286E000E296E000E2A6E000E2B6E800E8B
:101F40002A127F0E2B1238502B1228C028F029C0DD
:101F500029F02AC02AF02BC02BF0EFEF10F03F50F1
:101F6000D8A4B5EF0FF0B7EF0FF0C1EF0FF0000EF0
:101F7000286E000E296E000E2A6E000E2B6EEFEFFB
:101F800010F040503FC030F0316A305E000E315AE0
:101F90007F0E3024396E000E31203A6E28C034F0A6
:101FA00029C035F02AC036F02BC037F0000E286E5D
:101FB000000E296E000E2A6E000E2B6E000E3B6E78
:101FC000000E3C6E000E3D6E000E3E6E406A21EF2C
:101FD00010F04050D8B4EFEF0FF0F1EF0FF008EF32
:101FE00010F0D8903436353636363736D890283615
:101FF00029362A362B363EAE00EF10F002EF10F0F5
:1020000003EF10F02880D8903B363C363D363E3604
:102010002C50345C2D5035582E5036582F50375890
:10202000D8A015EF10F017EF10F020EF10F03E8C55
:102030002C50345E2D50355A2E50365A2F50375A68
:10204000402A190E406427EF10F029EF10F0E9EF55
:102050000FF03450351036103710D8B432EF10F07E
:1020600034EF10F04CEF10F03B804CEF10F0D890B4
:10207000283629362A362B363EAE41EF10F043EF94
:1020800010F044EF10F02880D8903B363C363D36B7
:102090003E363906D8A03A062AAE51EF10F053EF7B
:1020A00010F037EF10F0406A3EAE59EF10F05BEFE2
:1020B00010F07FEF10F0FF0E3B14306EFF0E3C145B
:1020C000316EFF0E3D14326E7F0E3E14336E305073
:1020D000311032103310D8B470EF10F072EF10F0EE
:1020E00076EF10F0010E406E7FEF10F028A07BEF2E
:1020F00010F07DEF10F07FEF10F072EF10F0405015
:10210000D8B485EF10F087EF10F0ABEF10F0010EB0
:102110002826000E29222A222B222BA092EF10F033
:1021200094EF10F0ABEF10F028C030F029C031F080
:102130002AC032F02BC033F03334333232323132F2
:10214000303230C028F031C029F032C02AF033C01C
:102150002BF0394A3A2A3ABEB6EF10F03A5008E16D
:102160003928D8A0B6EF10F0B8EF10F0C3EF10F098
:10217000000E3A6E3968000E286E000E296E000EB1
:102180002A6E000E2B6E3ABED0EF10F03A5006E1E8
:102190003904D8B0CEEF10F0D0EF10F0DDEF10F032
:1021A000000E3A6E000E396E000E286E000E296E7B
:1021B000000E2A6E000E2B6E386A39C03FF03FA029
:1021C000E4EF10F0E6EF10F0E9EF10F02A8EEAEFFE
:1021D00010F02A9ED8903F302B6EA3EF0FF0120024
:1021E0005E50D96EDA6ADFCFF6FF060EF76E080092
:1021F000F550250AD8A4FFEF10F001EF11F001EF20
:1022000012F05E50D96EDA6ADF2A000E0001DB6F31
:10221000000EDA6FDAC07CF0DC69DD695E50D96EE1
:10222000DA6ADFCFF6FF060EF76E0800F5502E0AC9
:10223000D8A41DEF11F01FEF11F02DEF11F05E503B
:10224000D96EDA6ADF2A5EC001F05FC002F098EC56
:1022500017F001C0DCF002C0DDF05E50D96EDA6A22
:10226000DF50666E66C0F6FF060EF76E0800F5508A
:10227000640AD8B43EEF11F040EF11F04EEF11F0C8
:1022800066C0F6FF060EF76E0800F550690AD8A47E
:102290004CEF11F04EEF11F069EF11F05F50D96E75
:1022A000DA6A020EDF26DF5CD96EDA6ADECF61F011
:1022B000DECF62F05E50D96EDA6A6628DF6E5DC0EE
:1022C00017F061C018F062C019F0F6EC13F012EFCD
:1022D00012F05E50D96EDA6ADF50666E66C0F6FFA5
:1022E000060EF76E0800F5CF65F081EF11F0662A53
:1022F00090EF11F06C0E656E90EF11F0656A90EF43
:1023000011F065504C0AD8B477EF11F02A0AD8B40E
:102310007AEF11F00A0AD8B477EF11F07EEF11F0DE
:1023200066C0F6FF060EF76E0800F550660AD8A4E0
:102330009CEF11F09EEF11F0FBEF11F0C8EF11F0E0
:102340005F50D96EDA6ADFCF60F0040EDF2660508E
:10235000D96EDA6ADECF61F0DECF62F0DECF63F0F5
:10236000DECF64F0D3EF11F05F50D96EDA6ADFCFC1
:1023700060F0040EDF266050D96EDA6ADECF61F0BD
:10238000DECF62F0DECF63F0DECF64F0D3EF11F08A
:1023900065504C0AD8B4B4EF11F0200AD8B4A0EFBD
:1023A00011F0D3EF11F05E50D96EDA6A6628DF6E55
:1023B000EFEF11F05DC055F061C056F062C057F00C
:1023C00063C058F064C059F066C0F6FF060EF76EA1
:1023D0000800F5CF5AF04AEC03F012EF12F066C095
:1023E000F6FF060EF76E0800F550660AD8B4DAEF6D
:1023F00011F0FBEF11F05E50D96EDA6ADF2A12EFAE
:1024000012F05E50D96EDA6ADFCFF6FF060EF76E75
:102410000800F550016E026A5DC003F043EC17F04E
:10242000FBEF11F01200CEC051F0CFC052F0D0C07F
:1024300053F0D1C054F041C051F042C052F043C0FB
:1024400053F044C054F0810E456EFF0E466E51C0ED
:1024500047F052C048F053C049F054C04AF0180E3B
:1024600037EF12F0D8904A32493248324732E82EDC
:1024700032EF12F0475045244F6E000E4620506E4A
:1024800050BE4CEF12F0505009E1170E4F5CD8A02F
:102490004CEF12F04EEF12F058EF12F041C041F045
:1024A00042C042F043C043F044C044F01BEF13F07D
:1024B00050BE5DEF12F05FEF12F0CFEF12F04FC0A1
:1024C00045F0FF0E466EFF0E476E7F0E486E000E03
:1024D000496E45666EEF12F076EF12F049344932DC
:1024E000483247324632452E69EF12F046C04BF073
:1024F00047C04CF048C04DF049C04EF04B5051140D
:10250000456E4C505214466E4D505314476E4E500B
:102510005414486E4550461047104810D8A493EF05
:1025200012F095EF12F097EF12F04EEF12F051C04B
:1025300045F052C046F053C047F054C048F0200E5A
:10254000A7EF12F0D8904832473246324532E82E93
:10255000A2EF12F04550461047104810D8B4B3EF20
:1025600012F0B5EF12F0BDEF12F04B5051264C5067
:1025700052224D5053224E5054224B1C456E4C1C3F
:10258000466E4D1C476E4E1C486E455051164650C7
:102590005216475053164850541613EF13F051C0BB
:1025A00045F052C046F053C047F054C048F0200EEA
:1025B000DFEF12F0D8904832473246324532E82EEB
:1025C000DAEF12F04550461047104810D8A4EBEF50
:1025D00012F0EDEF12F0F7EF12F0000E516E000E58
:1025E000526E000E536E000E546E13EF13F0D8901F
:1025F0005134456E5234466E5334476E5434486EEF
:102600004550461047104810D8B409EF13F00BEFAF
:1026100013F013EF13F0000E516E000E526E800E89
:10262000536EBF0E546E51C041F052C042F053C0C1
:1026300043F054C044F01200096E0950D8B423EF9F
:1026400013F025EF13F047EF13F004BE2CEF13F057
:102650002AEF13F047EF13F001C005F002C006F0B7
:1026600003C007F004C008F0051E061E071E081E62
:10267000052A000E06220722082205C00BF006C01C
:102680000CF007C00DF008C00EF04FEF13F001C0C2
:102690000BF002C00CF003C00DF004C00EF00150AE
:1026A000021003100410D8A458EF13F05AEF13F0DF
:1026B00064EF13F0000E016E000E026E000E036E4A
:1026C000000E046EF5EF13F0960E0A6E6EEF13F027
:1026D0000A2AD8900E320D320C320B32000E0B1437
:1026E000056E000E0C14066E000E0D14076EFE0E25
:1026F0000E14086E0550061007100810D8A483EFBA
:1027000013F085EF13F068EF13F093EF13F00A2A3C
:10271000010E0B26000E0C220D220E22D8900E3236
:102720000D320C320B32000E0B14056E000E0C1421
:10273000066E000E0D14076EFF0E0E14086E055087
:10274000061007100810D8A4A8EF13F0AAEF13F092
:1027500087EF13F0B2EF13F00A06D8900B360C3661
:102760000D360E360DBEB7EF13F0B9EF13F0C1EF13
:1027700013F0020E0A60BFEF13F0C1EF13F0ACEFDD
:1027800013F00AB0C6EF13F0C8EF13F0C9EF13F05F
:102790000D9ED8900A320AC005F0066A076A086AD8
:1027A00005C008F0076A066A056A05500B12065054
:1027B0000C1207500D1208500E120950D8B4E3EF56
:1027C00013F0E5EF13F0EDEF13F004BEECEF13F0B0
:1027D000EAEF13F0EDEF13F00E8E0BC001F00CC01A
:1027E00002F00DC003F00EC004F0120019BEFBEFA2
:1027F00013F0FEEF13F0010EFFEF13F0000E206E4A
:102800000001DDBF08EF14F006EF14F00EEF14F036
:10281000000E1F6E010E1E6E12EF14F0DCC01EF0D3
:10282000DDC01FF0DAC01CF0DBC01DF02050D8B4B2
:102830001CEF14F01EEF14F035EF14F01C06D8A0B6
:102840001D062050D8A427EF14F029EF14F02FEF25
:1028500014F0000E1B6E2B0E1A6E33EF14F0000EE8
:102860001B6E2D0E1A6E1AC020F0000E226E4F0E37
:10287000216E01014F6B6DEF14F02106D8A02206E6
:10288000000E2124D96E010E2220DA6E18C001F04C
:1028900019C002F0000E046E0A0E036E97EC16F0DB
:1028A00001C007F002C008F0C5EC1AF00750300F65
:1028B000DF6E1E06D8A01F061C06D8A01D0618C075
:1028C00001F019C002F0000E046E0A0E036E36EC21
:1028D00016F001C018F002C019F022BE78EF14F013
:1028E000225008E12104D8A078EF14F07AEF14F018
:1028F00090EF14F018501910D8A481EF14F083EF62
:1029000014F03DEF14F01FBE90EF14F01F5006E1DD
:102910001E04D8B08EEF14F090EF14F03DEF14F0D9
:102920002050D8B496EF14F098EF14F0A3EF14F001
:102930002106D8A02206000E2124D96E010E2220E5
:10294000DA6E20C0DFFF17C00FF0000E2124106EDA
:10295000010E2220116E1CC012F01DC013F0B4EC49
:1029600018F01200033404340A6E0A50D8A4BBEFE6
:1029700014F0BDEF14F0C7EF14F0000E016E000E5E
:10298000026E000E036E000E046E34EF15F001C0EF
:1029900005F002C006F003C007F004C008F0200EE6
:1029A000D7EF14F0D8900832073206320532E82EFD
:1029B000D2EF14F00550096E038EFF0E0116FF0EC4
:1029C0000216FF0E0316000E0416960E0A5E0ABECD
:1029D000EEEF14F0ECEF14F004EF15F00A50800A5B
:1029E000970FD8B0F6EF14F0F8EF14F0FAEF14F0F8
:1029F000BDEF14F0D89004320332023201320A3EA5
:102A0000FAEF14F01CEF15F01F0E0A640AEF15F030
:102A10000CEF15F014EF15F0BDEF14F0D89001365F
:102A20000236033604360A060A50D8A41AEF15F007
:102A30001CEF15F00EEF15F00950D8B422EF15F089
:102A400024EF15F02CEF15F0041E031E021E016C7E
:102A5000000E02220322042201C001F002C002F093
:102A600003C003F004C004F01200000E2814306EFE
:102A7000000E2914316E800E2A14326E7F0E2B1434
:102A8000336E3050311032103310D8A44AEF15F0A5
:102A90004CEF15F054EF15F0000E286E000E296E65
:102AA000000E2A6E000E2B6E000E2C14306E000EDF
:102AB0002D14316E800E2E14326E7F0E2F14336E55
:102AC0003050311032103310D8A469EF15F06BEF8D
:102AD00015F073EF15F0000E2C6E000E2D6E000E2B
:102AE0002E6E000E2F6E2BAE78EF15F07AEF15F0EC
:102AF00083EF15F0286C291ED8B0292A2A1ED8B0D9
:102B00002A2A800E2B562FAE88EF15F08AEF15F08B
:102B100093EF15F02C6C2D1ED8B02D2A2E1ED8B098
:102B20002E2A800E2F56000E281A000E291A000E8B
:102B30002A1A800E2B1A000E2C1A000E2D1A000EC7
:102B40002E1A800E2F1A2C50285C2D5029582E50EA
:102B50002A582F502B58D8B0B0EF15F0B2EF15F01F
:102B6000B5EF15F0D890B6EF15F0D880120076C00A
:102B70000BF077C00CF078C00DF079C00EF001C0FA
:102B80000BF002C00CF003C00DF004C00EF00BC03F
:102B900005F00CC006F00DC007F00EC008F0180ECE
:102BA000D7EF15F0D8900832073206320532E82EFA
:102BB000D2EF15F00550096E0A6A09500A10D8A420
:102BC000E4EF15F0E6EF15F006EF16F0D8900B34B1
:102BD000056E0C34066E0D34076E0E34086E05500B
:102BE000061007100810D8A4F8EF15F0FAEF15F04A
:102BF00000EF16F0000E026E020E016E35EF16F0B9
:102C0000000E026E030E016E35EF16F009280A1051
:102C1000D8A40DEF16F00FEF16F031EF16F00BC041
:102C200005F00CC006F00DC007F00EC008F0090E4C
:102C3000D8900536063607360836E82E18EF16F017
:102C40000550061007100810D8B429EF16F02CEF25
:102C500016F0010E2DEF16F0000E016E026A35EF30
:102C600016F0000E026E040E016E1200066A04BE1B
:102C70003EEF16F03CEF16F044EF16F0036C041E26
:102C8000D8B0042A010E066E02BE4BEF16F049EFD3
:102C900016F051EF16F0016C021ED8B0022A010E98
:102CA000061A000E086E000E076E03500410D8B40A
:102CB0005CEF16F05EEF16F086EF16F0010E056E73
:102CC00066EF16F0D89003360436052A04AE6BEF93
:102CD00016F06DEF16F062EF16F0D8900736083652
:102CE0000350015C04500258D8A079EF16F07BEF36
:102CF00016F080EF16F00350015E0450025A078070
:102D0000D89004320332052E6DEF16F00650D8B479
:102D10008CEF16F08EEF16F092EF16F0076C081E8F
:102D2000D8B0082A07C001F008C002F01200066AF5
:102D300002BE9FEF16F09DEF16F0A5EF16F0016CA6
:102D4000021ED8B0022A010E066E04BEACEF16F0C9
:102D5000AAEF16F0B0EF16F0036C041ED8B0042AE8
:102D600003500410D8B4B7EF16F0B9EF16F0DDEF4A
:102D700016F0010E056EC1EF16F0D890033604363A
:102D8000052A04AEC6EF16F0C8EF16F0BDEF16F038
:102D90000350015C04500258D8A0D1EF16F0D3EFD5
:102DA00016F0D7EF16F00350015E0450025AD89087
:102DB00004320332052EC8EF16F00650D8B4E3EF04
:102DC00016F0E5EF16F0E9EF16F0016C021ED8B030
:102DD000022A01C001F002C002F01200000E01142C
:102DE000096E000E02140A6E800E03140B6E7F0E25
:102DF00004140C6E09500A100B100C10D8A403EF29
:102E000017F005EF17F00DEF17F0000E016E000E32
:102E1000026E000E036E000E046E000E0514096EA5
:102E2000000E06140A6E800E07140B6E7F0E081437
:102E30000C6E09500A100B100C10D8A422EF17F0DA
:102E400024EF17F02CEF17F0000E056E000E066E43
:102E5000000E076E000E086E055001180FE10650B7
:102E600002180CE10750031809E108500418D8B4FF
:102E70003CEF17F03EEF17F041EF17F0D89042EF1C
:102E800017F0D88012000350D8B449EF17F04BEF79
:102E900017F053EF17F00350D8A451EF17F053EF8A
:102EA00017F058EF17F0015069EC1BF097EF17F08F
:102EB0000350D96EDA6A090ED926DE50DE10D8B476
:102EC00064EF17F066EF17F07FEF17F00350D96E3D
:102ED000DA6A090ED9260350E16EE26A020EE12693
:102EE000DE50E65CE650800A086EDE50800A085824
:102EF000D8B07DEF17F07FEF17F097EF17F0035082
:102F0000D96EDA6A020ED926DF50046E0350D96EEC
:102F1000DA6ADF500424D96EDA6A01C0DFFF035099
:102F2000D96EDA6A020ED926DE2A000EDD221200E0
:102F3000000E076E000E066E0150D96EDA6ADFCF02
:102F4000F6FF060EF76E0800F5502A0AD8A4ABEF7C
:102F500017F0ADEF17F0D2EF17F00150D96EDA6A23
:102F6000DF2A0250D96EDA6A020EDF26DF5CD96EE4
:102F7000DA6ADECF06F0DECF07F0E5EF17F00A0ED3
:102F80000602F3CF03F0F4CF04F00702F350042657
:102F900005500324066E000E0420076E0150D96E02
:102FA000DA6ADF2A0150D96EDA6ADFCFF6FF060E41
:102FB000F76E0800F550D00F056E090E0564E3EFBB
:102FC00017F0E5EF17F0BFEF17F006C001F007C0EC
:102FD00002F01200000E136E000E146EA00E156E9D
:102FE000400E166E41C001F042C002F0036A046A4E
:102FF000000E1CEC13F001C00FF002C010F003C073
:1030000011F004C012F015EC0DF00FC045F010C027
:1030100046F011C047F012C048F0000E136E000ECB
:10302000146EC80E156E420E166E45C00FF046C0E7
:1030300010F047C011F048C012F015EC0DF00FC0B1
:1030400028F010C029F011C02AF012C02BF0000E99
:103050002C6EC00E2D6E7F0E2E6E440E2F6E28EC41
:103060000FF028C041F029C042F02AC043F02BC025
:1030700044F0120006009EAC40EF18F042EF18F04A
:1030800051EF18F09E9C0001E451E511D8B44BEFCC
:1030900018F04EEF18F0010E4FEF18F0000EE46F2D
:1030A000E56BF2A456EF18F058EF18F07CEF18F02B
:1030B000F294F00ED76EBE0ED66E7A4A7B2A7B5003
:1030C00009E1060E7A5CD8A068EF18F06AEF18F0F4
:1030D0007CEF18F0000E7B6E000E7A6E0001E2515C
:1030E000E311D8B476EF18F079EF18F0010E7AEF0B
:1030F00018F0000EE26FE36B7F921100000E136E6A
:10310000000E146EA00E156E400E166E41C001F03A
:1031100042C002F0036A046A000E1CEC13F001C006
:103120000FF002C010F003C011F004C012F015EC53
:103130000DF00FC028F010C029F011C02AF012C005
:103140002BF0000E2C6EC00E2D6E7F0E2E6E440ED8
:103150002F6E28EC0FF028C041F029C042F02AC0A1
:1031600043F02BC044F0120013BEBBEF18F0B9EFD0
:1031700018F0BFEF18F0000E136E000E126E000E66
:10318000166E000E156ECFEF18F0000E026E200EB8
:10319000016E0FC003F043EC17F0154A162A1250C7
:1031A000155C1650800A146E1350800A1458D8A06B
:1031B000DCEF18F0DEEF18F0C5EF18F010C009F0E2
:1031C00011C00AF00FC00BF050EC1AF01200FDEF26
:1031D00018F003C0F6FF04C0F7FFF86A050EF764A5
:1031E00003D00800F55005D0F6CFE1FFF7CFE2FF9E
:1031F000E75053EC1BF0034A042A03C0F6FF04C057
:10320000F7FFF86A050EF76403D00800F55005D003
:10321000F6CFE1FFF7CFE2FFE7500009D8A413EFA4
:1032200019F015EF19F0E9EF18F01200026A016ABF
:1032300080A81DEF19F01FEF19F018EF19F0140E08
:10324000E82EFED780A827EF19F029EF19F02DEF0F
:1032500019F0D880023630EF19F002500224026EC5
:1032600080B835EF19F037EF19F030EF19F0012A77
:10327000070E01643EEF19F040EF19F018EF19F056
:103280000250120004BE47EF19F049EF19F053EF56
:1032900019F001C001F002C002F003C003F004C045
:1032A00004F06CEF19F001C005F002C006F003C095
:1032B00007F004C008F0051E061E071E081E052A9A
:1032C000000E06220722082205C001F006C002F007
:1032D00007C003F008C004F0120002BE72EF19F03C
:1032E00074EF19F096EF19F002BE80EF19F0040E9A
:1032F000025CD8B07EEF19F080EF19F096EF19F06C
:1033000001C003F002C004F0043404320332043478
:10331000043203320350BE6E01C003F0030E0316E5
:10332000033ABD500318CF0B0318BD6E1200056E93
:103330000C0E05649EEF19F0A0EF19F0A6EF19F03E
:10334000000E026E000E016EBFEF19F0030EC216E2
:103350000544E846FC0BC212C282C2B2B2EF19F0B9
:10336000B4EF19F0ADEF19F0C350C4CF03F0046A05
:1033700003C004F0036A0310016E0450026E1200D1
:1033800003C009F004C00AF001C007F002C008F051
:10339000DAEF19F009C0D9FF0AC0DAFFDF500B6E6F
:1033A000094A0A2A07C0D9FF08C0DAFF0BC0DFFFAD
:1033B000074A082A0506D8A00606052806E10628B9
:1033C000D8A4E5EF19F0E7EF19F0CAEF19F01200F1
:1033D000D00EF66E360EF76E000EF86E0900F5CFC1
:1033E0007DF00900F5CF7EF001EE00F0500EEE6AA0
:1033F000E806FDE100EECEF0180EEE6AE806FDE10B
:1034000000EE76F0070EEE6AE806FDE17F907F920F
:10341000000EF86E00013CEF08F0000E2C1A000EB2
:103420002D1A000E2E1A800E2F1A28C001F029C066
:1034300002F02AC003F02BC004F02CC005F02DC010
:1034400006F02EC007F02FC008F0BAEC0AF001C059
:1034500028F002C029F003C02AF004C02BF01200AB
:10346000ADC067F03CEF1AF0ACC05DF0670E5E6E69
:10347000AEC05FF0F0EC10F067C0F6FF060EF76E1E
:103480000800F5500009D8A448EF1AF04AEF1AF0E6
:1034900034EF1AF0000E0001AD6F000EAC6F120099
:1034A000000E0E6E000E0D6E5FEF1AF00CC001F0F4
:1034B000026A0BC003F043EC17F00D4A0E2A0D50C0
:1034C0000924D96E0E500A20DA6EDF500C6E0C50B3
:1034D000D8A46DEF1AF06FEF1AF056EF1AF0120041
:1034E00001C005F002C006F0032A0304046E04C004
:1034F000F6FF060EF76E05C0D9FF06C0DAFF054AD3
:10350000062A0800F5CFDFFFDF50D8A48AEF1AF0B3
:103510008CEF1AF074EF1AF01200B10E686EAFC0A3
:1035200069F0000E6C6E000E6B6E000E736E000E76
:10353000726E690E0001AC6FB0C0ADF0680EAE6F78
:1035400030EC1AF00001AF516B24D96EDA6ADF6AF1
:1035500012000150021003100410D8B4B2EF1AF098
:10356000B4EF1AF0BCEF1AF0000E011A000E021AA6
:10357000000E031A800E041A01C001F002C002F00E
:1035800003C003F004C004F0120008BECAEF1AF032
:10359000CCEF1AF0D2EF1AF007C007F008C008F01D
:1035A000DEEF1AF007C009F008C00AF0091E0A1E73
:1035B000094A0A2A09C007F00AC008F01200936AF3
:1035C0009592959E340E036EF20EE82EFED7032ED2
:1035D000FCD7380E5AEC1BF00C0E5AEC1BF0060E02
:1035E0005AEC1BF0010E5AEC1BF0120080B8FBEFF6
:1035F0001AF0FDEF1AF0F6EF1AF080A802EF1BF0B8
:1036000004EF1BF0FDEF1AF080B809EF1BF00BEF91
:103610001BF004EF1BF01200929889982F0E016E98
:10362000C00EE82EFED7012EFCD789880D0EE82E9D
:10363000FED700009288F6EC1AF01200F90ECB6E5D
:103640003F0EBD169494CA50FC0B0209CA6ECA8480
:10365000BD50F00B0C09BD6E1200066E7DC004F06B
:103660007EC005F00650040FD96EDA6ADF500324DD
:103670005AEC1BF01200010E5AEC1BF0060E036E02
:10368000300EE82EFED7032EFCD700D01200838E1A
:1036900000D0839E060E016E300EE82EFED7012E5E
:1036A000FCD700D01200026E838202C081FF47EC7B
:1036B0001BF01200026E839202C081FF47EC1BF0E8
:1036C000120092680D0EC26EC16ABA0EC06E120070
:0436D00080C01200A4
:020000040030CA
:0E000000FF08191EFF8180FF0FC00FE00F40A8
:00000001FF
